:020000040800F2
:10000000308E012049020008E9160008A1160008F8
:10001000E5160008911500080F21000800000000F7
:10002000000000000000000000000000E5180008CB
:10003000951500080000000079170008FD19000858
:1000400063020008630200086302000863020008FC
:1000500063020008630200086302000863020008EC
:1000600063020008630200086302000863020008DC
:1000700063020008630200086302000863020008CC
:1000800063020008630200086302000863020008BC
:1000900063020008630200086302000863020008AC
:1000A000630200086302000863020008630200089C
:1000B000691A0008011B0008311C000863020008CF
:1000C000630200086302000863020008630200087C
:1000D00063020008E11E00086302000863020008D2
:1000E000630200086302000863020008630200085C
:1000F000630200086302000863020008630200084C
:100100006302000863020008291D0008630200085A
:10011000630200086302000863020008630200082B
:10012000630200086302000863020008630200081B
:10013000630200086302000863020008630200080B
:1001400063020008630200086302000863020008FB
:1001500063020008630200086302000863020008EB
:1001600063020008630200086302000863020008DB
:1001700063020008630200086302000863020008CB
:10018000630200086302000800F002F800F04CF877
:100190000AA090E8000C82448344AAF10107DA45E2
:1001A00001D100F041F8AFF2090EBAE80F0013F0E8
:1001B000010F18BFFB1A43F001031847683F000006
:1001C000883F0000103A24BF78C878C1FAD8520797
:1001D00024BF30C830C144BF04680C6070470000C1
:1001E0000023002400250026103A28BF78C1FBD840
:1001F000520728BF30C148BF0B607047662903F023
:10020000B086642900F08280002070471FB503F09B
:100210009EFE00F067FB04000020002103F006F9B9
:10022000E0601FBD10B510BD00F07CFC1146FFF76B
:10023000EDFF02F0A7FE00F09AFC03B4FFF7F2FF17
:1002400003BC02F001FC0000094880470948004750
:10025000FEE7FEE7FEE7FEE7FEE7FEE7FEE7FEE776
:10026000FEE7FEE704480549054A064B70470000D3
:10027000011A000889010008307A0120308E01201F
:10028000308A0120308A0120704700000FB40449F1
:1002900010B503AA029800F013FB10BC5DF814FB24
:1002A000080000202DE9F0410E460446002020629F
:1002B0002046E168884730B3252805D0D4E90121DC
:1002C0009047206A401CF2E7E168204600278847F3
:1002D000050018D0A5F14100192802D820354FF4A7
:1002E00000673246294620462760FFF787FF40B166
:1002F000012804D0F61D26F007060836D8E7361D7B
:10030000D6E72846DAE7206ABDE8F0812DE9F0411A
:100310000646002410687529314616A510D0AFF3A3
:100320000080002802DA404213A507E031688A07FE
:1003300001D512A502E0490704D511A5012401E069
:10034000AFF3008000210A2206F1240709E0B0FB88
:10035000F2FCB0FBF2F302FB1C003030785418467C
:10036000491C0028F3D123462A463046BDE8F04117
:1003700000F03EB8000000002D0000002B0000003F
:10038000200000004FF0000200B513469446964648
:10039000203922BFA0E80C50A0E80C50B1F1200198
:1003A000BFF4F7AF090728BFA0E80C5048BF0CC046
:1003B0005DF804EB890028BF40F8042B08BF7047A4
:1003C00048BF20F8022B11F0804F18BF00F8012B16
:1003D0007047704770477047704710B500F086FA55
:1003E000006810BD10B5044600F080FA046010BD2E
:1003F0002DE9F0470D4699469246044600F124083F
:100400000168880604D5E06921F01001216000E050
:100410000120A84201DD471B00E00027A1697A19ED
:1004200002EB0900081AA0612078C00602D4204619
:10043000AFF30080002608E0D4E901211AF8060095
:100440009047206A401C761C20624E45F4DB2078E1
:10045000C0060AD52046AFF3008006E0D4E90121AA
:1004600030209047206A401C2062381EA7F1010707
:10047000F4DC07E0D4E9012118F805009047206A70
:10048000401C2062281EA5F10105F3DC2046AFF3D5
:1004900000802078000602D50220BDE8F087012008
:1004A000FBE770472DE9FF4F0C461E464FF0FF3724
:1004B0008BB0D2E90001DDF860800A908A46C1F372
:1004C0000A5505B93D46002108464FF00000BAF133
:1004D000000F00F4400005DA00EB80004FF440010B
:1004E00001EA50004FEA9059B9F1010F00DDB94619
:1004F0000A9850EA4A000ED044F61050A5F2FF3593
:1005000045432F14B8F1000F1ED07542291E1EDD81
:10051000C9F100021CE0B8F1010F4FF0000001D05A
:10052000302103E0F24305E02154401CB042FBDBE4
:1005300030460022002121540B99C1F80880C1E9FE
:1005400000200FB0BDE8F08FBD1B6D1CDEE74A46F2
:1005500000DA694206A800F06BFA06AB93E80700E0
:1005600003AB83E8070050460A9900F049FB8DE889
:100570000700A0F500501F3800900398002D0ADDF9
:1005800042F21F014A460844002303A9039068462B
:1005900000F0B2FD09E0A0F500504A461F380023E4
:1005A00003A90390684600F0BCFD8DE80700000435
:1005B000000C03D04FF0FF30410800E01046B8F1C6
:1005C000000F03D00022009215461EE0751E05D4D0
:1005D00000F090F9303262556D1EF9D5B346012214
:1005E000084302D000227F1C04E02078302801D18B
:1005F00000227F1E002A099784D01DE0112D07DA02
:1006000000F078F9303262556D1C50EA0102F5D1E4
:10061000084302D00098C8B10EE00021681E05E032
:10062000235C625C63542254401E491C8142F7DB08
:10063000AB46A81B401E0990002004F80B000B9845
:10064000099AC0F80880C0E9002B7AE711264FF01C
:10065000000857E72DE9F04F88460446D21D22F0E6
:10066000070191B0D1E90001CDE90A0101F051FD86
:1006700002460B98C00F01D02D2007E020688107AB
:1006800001D52B2002E0202101EAC000032A0990B5
:1006900001D0072A05DB03464146204600F088F9D1
:1006A0000BE12078800601D5E06900E00620B8F172
:1006B000650F814606D0B8F1660F18D0B8F1670F04
:1006C00070D131E00020B9F1110F009001DB11234E
:1006D00001E009F101030AAA01A90CA8FFF7E2FE53
:1006E000DDE90C70002609F10105834647E0012091
:1006F0004B4600904FF000470AAA01A90CA8FFF74B
:10070000D1FEDDE90DB00C995D46002610B909F166
:1007100001000D18B9EB050003D4C0F1FF3609F153
:100720000105A5EB09002BE0B9F1010F01DA4FF04B
:1007300001090020B9F1110F0090484601DD112395
:1007400000E003460AAA01A90CA8FFF7ABFEDDE909
:100750000C704D4600268346207800070AD4AB452E
:1007600000DA5D4601A8012D04DD411911F8011CD4
:10077000302907D04F4502DA17F1040F04DA0120BF
:1007800082460FE06D1EEEE7002F02DCED1B3E44BB
:1007900003E0781CA84200DD7D1CB81B00F1010AB3
:1007A0004FF000472078000703D4AA4501DB4FF043
:1007B000FF3A0021B7F1004F0DF143088DF84310C7
:1007C00024D002202B23002F01DA7F422D230A217F
:1007D000021EA0F1010000DC5FB197FBF1FC97FB6A
:1007E000F1F201FB1C7C17460CF1300C08F801CD2E
:1007F000EEE7A8F1010003702188090501D5452124
:1008000000E06521A0F1010800F8011C09980FA97A
:10081000A1EB0807FF1D00B10120411901EBEA70AF
:10082000A1693844081A401EA0612078C00602D48D
:100830002046AFF30080099828B1D4E90121904700
:10084000206A401C20622078C00622D52046AFF3E3
:1008500000801EE0002E04DBB34502DD01A8805DB0
:1008600000E03020D4E901219047206A401C20623A
:10087000761CAAF101005FEA000A0AD100F032F802
:10088000C0680168405CD4E901219047206A401C9F
:100890002062281EA5F10105DCDC07E0D4E9012176
:1008A00018F8010B9047206A401C2062381EA7F1FF
:1008B0000107F3DC2046AFF30080032011B041E6CE
:1008C000074B70B50D467B4400F05FF804462846A0
:1008D00000F020F910B14FF0FF3070BD204670BD20
:1008E0005323000000487047EC790120004870470E
:1008F000CC79012030B5B0F10A024FEA900E71F1C7
:1009000000034EEA817EB0EB0E0061EB91014FEAED
:10091000101E4EEA017E10EB0E0041EB11114FEA62
:10092000102E4EEA016E10EB0E0041EB11214FEA42
:10093000104E4EEA014E10EB0E0041EB11414018F3
:1009400041F100014FEAD00040EA41704FEAD10185
:1009500010EB80054FEA810444EA907444EB0104F3
:100960006D1944EB0404521BA3414FF0000348BF30
:100970000A3200D530BD401C41F1000130BD0000FD
:1009800001694A1C02610878704700B58FB0CDE953
:1009900001310021059105497944CDE90310114643
:1009A0006846FFF77FFC0FB000BD0000E5FFFFFFCA
:1009B0002DE9F0411F46044603260168072A01F489
:1009C000006004DB08B116A505E016A503E008B138
:1009D00015A500E015A521F010002060A069C01E3B
:1009E000A0610FB1401EA0612046AFF300804FB15F
:1009F000D4E9012138469047206A401C2062C01C7F
:100A0000206206E0206AFAE7D4E9012115F8010B1B
:100A10009047761EF8D22046AFF30080BDE8F08103
:100A20004E414E006E616E00494E4600696E660092
:100A30002DE9F047814616468AB0354878440DC8FE
:100A40008DE80D0032487844801C03AC0DC884E862
:100A50000D0041F69B300844372190FBF1F290FBEA
:100A6000F1F5A5F1800501FB12041B3C02D564429F
:100A7000012000E00020DFF898A080460027FA441B
:100A8000AAF1BE0A0EE0E0070AD03246684607EB3C
:100A9000470101230AEB810100F043FB8DE80700C9
:100AA00064107F1C002CEED1194F7F44AE3F19E03B
:100AB000E80715D007EB04100DF1180A90E80E00B6
:100AC0008AE80E00C068F04201D1981908903246B9
:100AD000012306A903A800F024FB03AB83E8070069
:100AE0006D10641C002DE3D14FF0010332466946BE
:100AF000B8F1000F03A802D000F0FEFA01E000F008
:100B000010FBC9E90001C9F808200AB0BDE8F08768
:100B1000CC360000007B00F0800070470048704732
:100B2000CC7901207546FFF7F9FFAE46050069460E
:100B3000534620F00700854618B020B5FFF792FB1A
:100B4000BDE820404FF000064FF000074FF00008CE
:100B50004FF0000B21F00701AC46ACE8C009ACE84F
:100B6000C009ACE8C009ACE8C0098D46704710B5B3
:100B70000446AFF300802046BDE81040FFF75DBBA0
:100B80004FF0013C50F8042B51F8043B9A4221D11C
:100B9000A2EB0C03934313EACC1317D150F8042BA8
:100BA00051F8043B9A4215D1A2EB0C03934313EA8C
:100BB000CC130BD150F8042B51F8043B9A4209D1C5
:100BC000A2EB0C03934313EACC13DBD04FF00000ED
:100BD000704700BFD01A01BAB1FA81F101F01801D3
:100BE00022FA01F0CB40C1F12001DBB2C0B2C01A41
:100BF0002CFA01F3D11A914311EAC311E6D17047DF
:100C00005FEA400C08BF91F0000F4FEA8C234FEAD7
:100C1000C12243EA51514FEA1C5018BF00F5F04081
:100C20004FEA300018BF41F000415FEA6C5C00F011
:100C30002980BCF1FF3F08BF40F080407047130C93
:100C400006BF12044FF0100C4FF0000C130E04BF3F
:100C500012020CF1080C130F04BF12010CF1040C6A
:100C6000930F04BF92000CF1020CD30F04BF52008B
:100C70000CF1010C11464FF00002A0F11F00A0EB97
:100C80000C00704711F0004F08BF704731F0004171
:100C90003FF4D5AF0B0C06BF09044FF0100C4FF01A
:100CA000000C0B0E04BF09020CF1080C0B0F04BF63
:100CB00009010CF1040C8B0F04BF89000CF1020C2C
:100CC000CB0F04BF49000CF1010CCCF12003A0EBC9
:100CD0000C0022FA03F302FA0CF241EA030100F1DC
:100CE0000100704720F07F4C80EA030023F07F472B
:100CF000ACEB070303F57C5300F0004003F1FF0366
:100D00002DE980494FEA154B09B44FEA144325EA0F
:100D10000B4E24EA03480FF2042606EB132749087A
:100D20003E785FEA320203FB0667C7F5000707FB60
:100D300006F64FEA54374FEAD64606F1020607FB9D
:100D4000066CCCF1005C4FEA1C472CEA074C07FB11
:100D500006F40CFB06F504EB15464FEA961634BF75
:100D600000204FF000404FEAD13706FB07FC4FEA66
:100D70001C4C0CFB0BF7D21B03FB0CF761EB0701C0
:100D80000CFB0EF7B0EB074072EB17420CFB08F7B9
:100D900034BFA2EB0742B2EB074261EB17414FEAC7
:100DA0000C444FEA910706FB07FC4FEA1C4C0CFB76
:100DB0000BF7B0EBC74072EB573203FB0CF734BFB5
:100DC000A2EBC742B2EBC74261EB57310CFB0EF707
:100DD000B0EBC70072EB57720CFB08F734BFA2EB05
:100DE000C702B2EBC70261EB5771039F4FEA816103
:100DF00041EA921104EBCC044FEAD1374FEA826208
:100E000006FB07FC42EA90124FEA80604FEA1C4C56
:100E10000CFB0BF7D21B03FB0CF761EB07010CFB80
:100E20000EF7B0EB074072EB17420CFB08F734BF2C
:100E3000A2EB0742B2EB074261EB17414FEA8C5538
:100E40004FEA910704EB9C2406FB07FC4FEA1C4C7D
:100E50000CFB0BF7B0EBC74072EB573203FB0CF700
:100E600034BFA2EBC742B2EBC74261EB57310CFB78
:100E70000EF7B0EBC70072EB57720CFB08F734BFEC
:100E8000A2EBC702B2EBC70261EB577115EB4C2521
:100E90004FEA816141EA92114FEA82624FEAD1370B
:100EA00042EA901206FB07FC44F100044FEA80601E
:100EB0004FEA1C4C0CFB0BF7D21B03FB0CF761EB4E
:100EC00007010CFB0EF7B0EB074072EB17420CFB6F
:100ED00008F734BFA2EB0742B2EB074261EB1741C0
:100EE00015EB1C154FEA813141EA92414FEA8232FB
:100EF00042EA90424FEA80304FEA0C7644F1000417
:100F000048EA03434EEA0B484FF0000EB2EB080CE0
:100F100071EB030724BF624639464EEB0E0E4FF0CD
:100F2000000B0018524149414BEB0B0BB2EB080C84
:100F300071EB03077BF1000B24BF624639464EEB91
:100F40000E0E4FF0000B0018524149414BEB0B0BBA
:100F5000B2EB080C71EB03077BF1000B24BF624678
:100F600039464EEB0E0E51EA020718BF46F0010655
:100F700016EB0E7655F1000254F1000103D5BDE8E1
:100F80008901BDE80088BDE88901BDE80048B619BF
:100F9000524141EB0101A3F10103704780807F7E44
:100FA0007D7C7B7A797877767675747372717170DF
:100FB0006F6E6E6D6C6C6B6A6A6968686766666591
:100FC0006464636362616160605F5F5E5E5D5D5C1F
:100FD0005C5B5B5A5A595958585757565655555590
:100FE0005454535352525251515050504F4F4F4EF0
:100FF0004E4D4D4D4C4C4C4B4B4B4A4A4A4949493E
:10100000484848474747474646464545454444447F
:10101000444343434342424242414141002B9C46A8
:1010200030D477002BD01CB54FEA370703B44FF00C
:1010300010004FF01001BAF1000F06D0BCF1000F04
:10104000DCBF40F0080040F008014FF000000FBC8A
:10105000BDE810400BF1010BBBF1010F08BF5FEAC7
:10106000170722BF12F1010211F101014FF00041F7
:1010700043F1000300F0004043EA00007047F9D359
:101080005708D0E746EA064613F1400F4FEA1646E6
:101090001FDD13F1200FDFBF16430A460021203366
:1010A0005B42BED0C3F1200746EA064602FA07F7C4
:1010B0004FEA164646EA0706C3F1200722FA03F272
:1010C00001FA07F721FA03F14FF0000342EA0702A1
:1010D000A7E746EA020646EA06464FEA164646EA09
:1010E0000106BCBF46EA0646360C4FF000034FF03F
:1010F00000024FF0000194E72DE9804C9A46934698
:1011000070B491E8380007C831EA400C48BF34EAAF
:10111000430C03D5FFF7E6FDFFF780FFF0BCBDE809
:10112000008C2DE9804C9A46934670B491E83800C3
:1011300007C810F0804F08BF13F0804F03D100F0B4
:1011400005F8FFF76BFFF0BCBDE8008C20F07F478F
:1011500080EA030023F07F4C07EB0C03A3F57C53DC
:1011600000F00040A3F1FE0392F0000F00F0B38006
:1011700095F0000F00F077802DE901494FEA11400A
:101180004FEA144621EA004800FB06FC24EA064721
:1011900008FB06F607FB08F800FB07F718EB064804
:1011A0004CEB164C4FEA124B18EB07484FEA15462A
:1011B0004CEB174022EA0B4E0BFB06FC25EA0647D8
:1011C0000EFB06F607FB0EFE0BFB07F71EEB064EAB
:1011D0004CEB164C4FF000061EEB074E4CEB174B3A
:1011E00018EB0B0840F1000018EB0E0B58EB000851
:1011F00040F100008F1A4FF000013CBFC943661B4D
:1012000014BFB5EB040C00213CBFC943F61B4FEAE9
:1012100017444EEA8E0E27EA04454FEA1C4704FBAA
:1012200007622CEA074C05FB07F70CFB05F604FBED
:101230000CFC16EB074642EB174216EB0C4642EB52
:101240001C421BEB060658EB0202414146EA9E0691
:1012500001D5BDE80189B619524141EB0101A3F165
:101260000103BDE801894FEA14454FEA114724EA1A
:10127000054621EA074C05FB07F406FB07F70CFBC4
:1012800006F105FB0CFC11EB074144EB17444FEA58
:10129000124711EB0C4144EB1C4422EA074C05FBBE
:1012A00007F206FB07F70CFB06F605FB0CFC16EB3A
:1012B000074642EB174216EB0C4642EB1C456A18F8
:1012C00054F1000148BF7047B619524141EB01018A
:1012D000A3F10103704795F0000F37D04FEA114298
:1012E0004FEA144721EA024624EA074C02FB07F1C1
:1012F00006FB07F70CFB06F402FB0CFC14EB07449F
:1013000041EB17414FEA154714EB0C4441EB1C41EC
:1013100025EA074C02FB07F506FB07F70CFB06F670
:1013200002FB0CFC16EB074645EB174516EB0C468B
:1013300045EB1C42121951F1000148BF7047B61924
:10134000524141EB0101A3F1010370474FEA1445FB
:101350004FEA114724EA054621EA074C05FB07F14D
:1013600006FB07F70CFB06F24FF0000605FB0CFC32
:1013700012EB074241EB174112EB0C4251EB1C41BF
:1013800048BF7047921841EB0101A3F10103704778
:1013900021B1826842F00102826003E0826822F09B
:1013A00001028260704700000021084A1168084A63
:1013B0001140D0E900231A4383681A43C3681A43D3
:1013C0001143044AC2F8041370470000042301408B
:1013D000E030FCFF002001400146C86C80B270473D
:1013E0000246002013680B400BB1012000E00020F2
:1013F0007047000030B50246002000235068104CB2
:1014000020400D790C6844EA052420435060906820
:101410000C4C2040D1E903542C438D682C434D796A
:1014200044EA450420439060D06A20F470000C7DAB
:10143000641EE4B2234340EA0350D06230BD000092
:10144000FFFEFFFCFDF7FFC0F0B504460D4600208F
:101450000021092D11DDE068A5F10A0606EB46071B
:10146000072606FA07F18843A5F10A0606EB4606A9
:1014700003FA06F10843E0600CE0206905EB45073C
:10148000072606FA07F1884305EB450603FA06F13D
:1014900008432061072A0FDA606B561E06EB8607A9
:1014A0001F2606FA07F18843561E06EB860605FA44
:1014B00006F10843606322E00D2A0FDA206BD61F85
:1014C00006EB86071F2606FA07F18843D61F06EBB0
:1014D000860605FA06F10843206310E0E06AA2F1EF
:1014E0000D0606EB86071F2606FA07F18843A2F1D0
:1014F0000D0606EB860605FA06F10843E062F0BD2C
:10150000816841F0804181607047000000B58DB076
:101510000121084600F032F90121080200F04EF9DD
:101520003F200B9003208DF8300000208DF8330011
:101530000BA9154800F02FF80121080200F04EF920
:1015400000214FF4807000F049F9002007900A90C4
:1015500009904FF48030089007A8FFF725FF00207E
:1015600001908DF808008DF8090003900590012086
:101570008DF8180001A90548FFF73CFF0121034839
:10158000FFF706FF0DB000BD000002400020014043
:1015900000BFFEE77047F0B50A4600210023002493
:1015A00000BF3DE0012505FA01F3156805EA0304D3
:1015B0009C4234D105684F000326BE40B543056008
:1015C00015794E00B5400668354305601579012D43
:1015D00002D01579022D16D185684F000326BE4032
:1015E000B543856055794E00B540866835438560C2
:1015F000456801268E40B5434560456896798E4022
:10160000B6B235434560C5684F000326BE40B543BA
:10161000C560D5794E00B540C6683543C560491CE4
:101620001029BFD3F0BDF0B5002300244D07ED0E07
:1016300002FA05F3CE1000F1200555F826504E07AA
:10164000F70E0F26BE40B543CF1000F1200646F836
:101650002750CE1000F1200555F8265045EA030426
:10166000CE1000F1200545F82640F0BD01837047FB
:1016700010B504460023012221460848FFF7E4FE86
:101680000648FFF73DFF00BF02210448FFF7A8FE10
:101690000028F9D00148FFF79FFE10BD002001404F
:1016A00000BFFEE71CB50121202000F067F84FF4D1
:1016B000C060009001208DF8040000208DF8060025
:1016C00003208DF8050001208DF8070069460448C5
:1016D000FFF761FF4FF4C0610148FFF7C7FF1CBD72
:1016E0000014024000BFFEE77047000070B5002103
:1016F00000230F22C4781CB3174C246804F4E06460
:10170000C4F5E064C4F30721C1F10404E3B20A4163
:1017100044789C40E1B28478144021430C07210EA8
:101720000E4C05786155047804F01F050124AC4087
:1017300005786D11AD0005F1E025C5F8004109E01F
:10174000047804F01F050124AC40054D067876119D
:1017500045F8264070BD00000CED00E000E400E01C
:1017600080E100E002490143024A11607047000035
:101770000000FA050CED00E07047000029B1064AB0
:1017800012680243044B1A6004E0034A1268824361
:10179000014B1A60704700003038024029B1064AF8
:1017A00012680243044B1A6004E0034A1268824341
:1017B000014B1A60704700004038024029B1064AC8
:1017C00012680243044B1A6004E0034A1268824321
:1017D000014B1A60704700004438024029B1064AA4
:1017E00012680243044B1A6004E0034A1268824301
:1017F000014B1A607047000024380240F0B5002108
:1018000000220024022500260223324F3F6807F001
:101810000C0121B1042905D0082937D105E02E4F4C
:10182000076036E02D4F076033E02A4F3F1F3F68C7
:10183000C7F38056274F3F1F3F6807F03F036EB145
:10184000264FB7FBF3F7DFF88CC0ACF1040CDCF8E3
:1018500000C0CCF3881C07FB0CF40CE01E4FB7FB58
:10186000F3F7DFF870C0ACF1040CDCF800C0CCF387
:10187000881C07FB0CF4174F3F1F3F68C7F3014755
:101880007F1C7D00B4FBF5F7076002E0124F076094
:1018900000BF00BF0F4F3F6807F0F0010909104F6C
:1018A0007A5C0768D74047600A4F3F6807F4E05109
:1018B000890A0B4F7A5C4768D7408760054F3F68BD
:1018C00007F46041490B064F7A5C4768D740C76010
:1018D000F0BD0000083802400024F40000127A0035
:1018E0000E000020704700000CB500200190009011
:1018F0003448006840F480303249086000BF314805
:10190000006800F4003000900198401C019000989D
:1019100018B90198B0F5A04FF1D12A48006800F439
:10192000003010B10120009001E0002000900098EC
:10193000012846D123484030006840F080502149BA
:10194000403108602048006840F440401E4908606B
:101950001C48083000681B490831086008460068C8
:1019600040F4004008600846006840F4A050086059
:101970001648091F0860081F006840F08070091FA2
:10198000086000BF0F48006800F000700028F9D020
:1019900040F205700E4908600A480830006820F0DF
:1019A00003000849083108600846006840F002005A
:1019B000086000BF03480830006800F00C000828E9
:1019C000F8D10CBD003802400070004008544007B8
:1019D000003C0240042808D14FF0E021096941F0A1
:1019E00004014FF0E022116107E04FF0E0210969A6
:1019F00021F004014FF0E0221161704770470000B0
:101A000010B51548006840F4700013490860134889
:101A1000006840F001001149086000200F490831BA
:101A200008600E4800680E4908400C4908600D48DF
:101A3000091D0860081F006820F48020091F086045
:101A4000002006490C310860FFF74EFF4FF00060A0
:101A500001498039086010BD88ED00E0003802407F
:101A6000FFFFF6FE1030002410B50121880700F0BA
:101A7000DAF9012811D10948008800F4004040B18A
:101A8000074801F0C5FB002004490880044800F025
:101A9000DDFF0121880700F0B7F910BD0C00002020
:101AA000047901207FB505460C4601210846FFF761
:101AB00075FE0295ADF804400020ADF80600ADF8C3
:101AC0000C0001A94FF0804000F0C8F90122114636
:101AD000900700F0B9F90121880700F098F91C205F
:101AE0008DF8000001208DF8010003208DF8020020
:101AF00001208DF803006846FFF7F8FD7FBD000068
:101B000070B52DED068B01212B4800F08CF90128D2
:101B10004AD12A4890F8C007002845D02748D0F875
:101B2000BC17D0F8B807814235DA002429E040F626
:101B3000A7716143224A02EB810101F5405191F8FE
:101B40008C0EFFF795FD054601F016FF9FED1D0B6E
:101B500053EC102B01F072FD9FED1C0B53EC102B7E
:101B600001F05AFF01F084FC40F6A7716143144A6A
:101B700002EB8101091D114AD2F8BC2741F822006D
:101B8000641C062CD3DB0D48D0F8BC07401C0B4965
:101B9000C1F8BC0708E000210848C0F8BC1780F86D
:101BA000C017012180F8C1170121034800F02CF96A
:101BB000BDEC068B70BD00000004004020700120C9
:101BC00020000020000000000000B040666666664D
:101BD00066660A407FB505460C4601210220FFF7E4
:101BE000DDFD0295ADF804400020ADF80600ADF82B
:101BF0000C0001A90D4800F031F9012211460B48F3
:101C000000F022F90121094800F001F91D208DF8AA
:101C1000000001208DF8010003208DF80200012052
:101C20008DF803006846FFF761FD7FBD00040040AA
:101C300010B50121224800F0F6F801283FD12148D3
:101C400090F82800002836D11E4800681D494968D0
:101C5000884227DA1C48006840B91B48006808B968
:101C6000012000E000201849086024E015480169BF
:101C7000C068801E81420FD11348006808B9012056
:101C800000E000201049086000200E490861084665
:101C90000068401C08600EE00A480069401C0949C1
:101CA000086108E0074841698069814203DB002040
:101CB000044981F829000121014800F0A5F810BD70
:101CC00000080040C47801209C0241427FB50546CF
:101CD0000C4601210420FFF761FD0295ADF8044098
:101CE0000020ADF80600ADF80C0001A90D4800F089
:101CF000B5F8012211460B4800F0A6F80121094869
:101D000000F085F81E208DF8000001208DF80100FC
:101D100003208DF8020001208DF803006846FFF7CC
:101D2000E5FC7FBD0008004010B501211C4800F013
:101D30007AF8012833D11B4890F8280028BB1948AD
:101D400041698069814226DA1748006840B916481F
:101D5000006808B9012000E00020134908601AE07B
:101D60001048416A006A801E81420FD10E48006807
:101D700008B9012000E000200B4908600021094853
:101D800041624069401C0749486104E00548406AD7
:101D9000401C044948620121014800F035F810BD9B
:101DA000000C0040C4780120A00241427FB50546E6
:101DB0000C4601210820FFF7F1FC0295ADF8044024
:101DC0000020ADF80600ADF80C0001A90D4800F0A8
:101DD00045F8012211460B4800F036F80121094868
:101DE00000F015F832208DF8000001208DF8010078
:101DF00003208DF8020001208DF803006846FFF7EC
:101E000075FC7FBD000C0040CA430282704721B1BF
:101E1000028842F00102028004E002884FF6FE735D
:101E20001A400280704730B502460020002300248B
:101E3000158A05EA0103958905EA010413B10CB17D
:101E4000012000E0002030BD1AB183890B4383815B
:101E500002E083898B43838170470000002202885F
:101E6000184B98420ED0184B98420BD0B0F1804FCF
:101E700008D0164B984205D0154B984202D0154B0E
:101E8000984204D14FF68F731A404B881A43124B75
:101E9000984207D0114B984204D04FF6FF431A40A6
:101EA0000B891A4302804B68C3620B880385054B7C
:101EB000984202D0044B984201D18B7A03860123C9
:101EC000838270470000014000040140000400408C
:101ED00000080040000C00400010004000140040CA
:101EE00010B540F225511D4800F053F810B31B48BF
:101EF00000F008F9C4B21A48008800F40040C8B9DC
:101F00001748008800F4804060B10A2C03D00020FC
:101F10001349088020E01248008840F4004010492E
:101F2000088019E00D2C06D10D48008840F480404F
:101F30000B49088010E00A480088C0F30D000949E9
:101F40000C5407480088401C054908800846008852
:101F5000C72801DD0020088010BD000000100140EE
:101F60000C0000200479012001F40072B2F5007F1A
:101F700000D100BFCA430280704721B1828942F478
:101F80000052828104E082894DF6FF731A408281FB
:101F9000704770B50246002400230025002040F65B
:101FA0006A16B14200D100BFC1F3421501F01F0310
:101FB000012606FA03F3012D02D19689334006E08B
:101FC000022D02D1168A334001E0968A33400C126A
:101FD000012606FA04F41688344013B10CB101202E
:101FE00000E0002070BDF0B5034600240026002567
:101FF000002040F66A17B94200D100BF1846C1F36D
:10200000421401F01F06012707FA06F5012C01D141
:102010000C3004E0022C01D1103000E014301AB171
:1020200007682F43076002E00768AF430760F0BD11
:102030002DE9FF4705460E460024A14600BFA046F5
:10204000B08900B100BF2C8A24F44054F0880443C6
:102050002C82AC8941F20C608443B08831890843FA
:10206000718908430443AC81AC8A24F44074B0897C
:102070000443AC826846FFF7C1FB2048854202D08A
:102080001F48854202D1DDF80C9001E0DDF8089090
:10209000A88900F4004040B109EBC90000EB091029
:1020A00031684900B0FBF1F707E009EBC90000EB2C
:1020B000091031688900B0FBF1F76420B7FBF0F03C
:1020C00004012009642101FB1078A88900F4004074
:1020D00040B1322000EBC800B0FBF1F000F0070087
:1020E000044308E0322000EB08106421B0FBF1F05B
:1020F00000F00F0004432C81BDE8FF870010014071
:102100000014014001468888C0F30800704700BFF2
:10211000FEE703B401984100009850EAC12018BFBF
:1021200004204A0D18BF40F0010040F2FF72B2EBEC
:10213000515F08BF40F00200012808BF052002B02F
:1021400070472DED020B019820F0004001909DEDAD
:10215000000B02B07047000010B52F499FED2C1BFB
:102160002DED020B84B0059820F000408842DCBFC2
:1021700000209DED040B32DD2849884209D10498E6
:1021800040B94FF00100FEF72DF900F03DFC06B01C
:1021900010BD05DB9DED040B00F02AFC06B010BD60
:1021A00068469DED040B00F03BF810F0030011D0E1
:1021B000012818D09DED021B9DED000B02281AD0BE
:1021C00000F04AFA51EC100B01F046F906B041EC70
:1021D000100B10BD9DED021B9DED000B012000F0CA
:1021E0006FFB06B010BD9DED021B9DED000B00F0D6
:1021F00033FA06B010BD012000F062FB51EC100B69
:1022000001F02AF906B041EC100B10BD00000000EF
:102210000000000000000000FB21E93F0000F07F0B
:102220002DE9F14F04462DED020B2DED088B8AB000
:102230009FEDE70B80ED020B139EE74826F000456B
:1022400085420ADC9DED120B002084ED000B0AB0E4
:10225000BDEC088B03B0BDE8F08FE0489FEDE0AB2C
:102260009FEDE1BBA84247DDE14F9FEDE39B9FED72
:10227000E48B9DED120B53EC1A2B51EC100B002E3E
:102280001CDD01F009FD41EC100BBD4208D053EC00
:102290001B2B51EC100B01F0FFFCC4E900010BE01B
:1022A00053EC192B51EC100B01F0F6FC53EC182BEE
:1022B00001F0F2FCC4E900010120C8E701F00AF9CD
:1022C00041EC100BBD4208D053EC1B2B51EC100B12
:1022D00001F000F9C4E900010BE053EC192B51ECBB
:1022E000100B01F0F7F853EC182B01F0F3F8C4E9E8
:1022F00000014FF0FF30AAE7C348A84279DB9DED0B
:10230000120B51EC100B00F009FC41EC180B9FED87
:10231000C00B53EC102B01F07FFB9FEDBF1B53EC68
:10232000112B01F0D7F801F0E1FA074601F00DFB9F
:1023300041EC190B53EC1A2B01F06EFB53EC182BEC
:1023400001F09EFC41EC180B53EC1B2B51EC190BCC
:1023500001F062FBDFF8C8A241EC100B4FEA155800
:102360000125FA4453EC102B51EC180B01F094FCAE
:10237000032DC4E900013DD0C1F30A5005EB45111E
:10238000A8EB00001139814234DA0AEB051BB0EEEC
:1023900048AA9BED000BF0EE68AA53EC102B51EC11
:1023A000190B01F039FB41EC1B0B51EC1A0B53ECF0
:1023B0001B2B01F071FC41EC180B51EC1A0B53EC88
:1023C000182B01F069FC53EC1B2B01F065FC9BED15
:1023D000020B41EC1A0B53EC102B51EC190B01F0D2
:1023E0001BFB53EC1A2B01F057FC41EC100B6D1C3E
:1023F000B8E70EE0002EA8BF3846BFF628AF94ED30
:10240000000B51EC100B01F027F8C4E900017842F1
:102410001DE7C6F3130040F4801EC6F30A50A0F275
:10242000F530471100F01F05C5F12000DDF848B078
:1024300008900020069007900520EC467949002D71
:1024400007EB0002794408BF51F8221009D051F877
:10245000223001EB8201AB404A68089922FA01F16F
:102460001943A1FB0E26A1FB0B131A449A4234BF59
:102470000123002303EB06080CEB8003D3E901A63C
:102480000E448E4234BF0121002192448A4411B18E
:10249000924502D903E0924501D2012100E00021DA
:1024A000C3E901A641444CF82010011EA0F101002F
:1024B000C4DC029800F10050850F0298DDE9036743
:1024C0008000DDF8148001F040FA41EC1A0B304630
:1024D00001F052FA9FED541B53EC112B01F09CFAC2
:1024E00041EC1B0B384601F047FA9FED511B53ECB2
:1024F000112B01F091FA41EC180B404601F03CFA27
:102500009FED4D1B53EC112B01F086FA41EC190B9A
:1025100051EC180B53EC192B00F0DCFF53EC1B2B88
:1025200000F0D8FF53EC1A2B00F0D4FFCDE90801DE
:10253000002008909DED080B53EC1A2B51EC100B6A
:1025400001F0AAFB53EC1B2B01F0A6FB53EC182B5C
:1025500001F0A2FB53EC192B01F092FB9FED381B0D
:1025600053EC112B01F058FA9FED370B41EC180B8F
:1025700053EC102B9DED080B51EC100B01F04CFAB5
:1025800053EC182B00F0A6FF9FED310B41EC180B1C
:1025900053EC102B9DED080B51EC100B01F03CFAA5
:1025A00053EC182B00F096FF41EC100B139810F031
:1025B000004F06D06D4251EC100B00F04DFF41EC86
:1025C000100B284684ED000B41E6000000000000DF
:1025D0000000000000000000FB21E93F7CD9024020
:1025E00000004054FB21F93F3163621A61B4D03DD1
:1025F000FB21F93F000000000000601A61B4D03DEB
:102600007370032E8A19A33BFB213941000000009F
:1026100083C8C96D305FE43F000000000000E03F68
:102620003A1C0000881B0000000000000000103E63
:10263000000000000000103C000000000000103A04
:10264000182D4454FB21F93D3326A611460B113CAD
:1026500000000054FB21F93D10B52DED040B2DEDCC
:10266000088B82B0B0EE419AF0EE619A0B9820F0A0
:1026700000449FED4BABB4F1795F11DA9DED0A0B8D
:1026800051EC100B01F032F9002801BFB0EE4A0AFC
:10269000F0EE6A0A02B0BDEC088B04BF04B010BDB6
:1026A0009DED0A0B53EC102B51EC100B01F0B4F91B
:1026B00041EC180B3C480621B0EE480AF0EE680ADF
:1026C000784400F081F853EC182B51EC100B01F01A
:1026D000A3F99DED0A0B41EC1B0B53EC192B51ECAC
:1026E000100B01F099F941EC190B53EC1B2B51EC39
:1026F000180B01F091F953EC192B01F0CDFA9FED75
:102700002C0B41EC190B53EC102B51EC180B01F076
:1027100083F941EC100B2848844210DA53EC192B52
:1027200051EC100B01F0B8FA53EC1A2B01F0A8FA97
:1027300041EC100B02B0BDEC088B04B010BD1F487B
:10274000A042BCBF9FED1E1B8DED001B06DBA4F558
:1027500000100190002000909DED001B51EC100B2B
:1027600053EC112B01F098FA9DED000B41EC180B86
:1027700053EC102B51EC1A0B01F08EFA41EC1A0BB2
:1027800053EC192B51EC180B01F086FA53EC1A2B71
:1027900001F076FA41EC100BCCE7000000000000DD
:1027A000000000000000F03FAC1800000000000036
:1027B000000000000000E03F3333D33F0000E93F5A
:1027C000000000000000D23F70B504462DED028BE2
:1027D0004D1E00EBC500B0EE408AF0EE608A90ED31
:1027E000000B35F0060017D053EC182B51EC100BF2
:1027F00001F012F941EC100B6D1E04EBC50090EDD9
:10280000001B51EC100B53EC112B00F063FE41EC5C
:10281000100B35F00600E7D1022D36D0042D1CD068
:10282000062D1CBFBDEC028B70BD53EC182B51EC78
:10283000100B01F0F1F894ED0A1B53EC112B00F092
:1028400049FE53EC182B01F0E7F894ED081B53EC0C
:10285000112B00F03FFE41EC100B53EC182B51EC08
:10286000100B01F0D9F894ED061B53EC112B00F07E
:1028700031FE53EC182B01F0CFF894ED040B53EC20
:10288000102B00F027FE41EC100B53EC182B51ECF1
:10289000100B01F0C1F894ED021B53EC112B00F06A
:1028A00019FE53EC182B01F0B7F894ED001B53EC14
:1028B000112B00F00FFEBDEC028B41EC100B70BD34
:1028C00031B504462DED040B2DED0A8BB0EE41BA67
:1028D000F0EE61BA0B989DED0A0B20F00040B0F1CC
:1028E000795F0DDA51EC100BFFF713FC042808BFD9
:1028F00000F09AF89DED0A0BBDEC0A8B05B030BDD7
:1029000053EC102B51EC100B01F086F841EC180B36
:102910009DED0A0B53EC182B51EC100B01F07CF8D9
:1029200041EC190B2C48B0EE480AF0EE680A05217C
:102930007844FFF749FF9FED2ACBB0EE40AAF0EEB6
:1029400060AA9CB353EC1C2B51EC190B01F064F8FA
:1029500041EC1C0B53EC1A2B51EC190B01F05CF8F9
:102960009FED210B41EC190B53EC102B51EC1B0B81
:1029700001F052F853EC192B01F08EF953EC182B9F
:1029800001F04AF853EC1B2B01F086F953EC1C2B99
:1029900001F082F99DED0A1B53EC112B01F070F947
:1029A000BDEC0A8B05B041EC100B30BDFFE753ECDA
:1029B0001A2B51EC180B01F02FF853EC1C2B00F0E4
:1029C00089FD53EC192B01F027F89DED0A1B53EC00
:1029D000112B00F07FFDE3E734170000000000003A
:1029E000495555555555C5BF000000000000E03F52
:1029F00010B553EC102B51EC100B00F06BFD41ECBB
:102A0000100B10BD000000009FED050B10B553EC3E
:102A1000102B51EC100B00F011FE41EC100B10BD0F
:102A200000000000000000009FED050B10B553EC06
:102A3000102B51EC100B00F0EFFF41EC100B10BD10
:102A4000000000000000001000BF704702E00021FD
:102A50000170401C01780029F9D1704710B5044677
:102A60006FF00400FEF7B6FFE11704EB5171C1F3FC
:102A7000C701074A11701046007800EB4001C1EB16
:102A8000C0104FF6FF7101EAC0000249088010BD76
:102A9000020000200400002070B504464FF40770C7
:102AA00094FBF0F0C6B24FF4077094FBF0F100FB1A
:102AB000114085B205E04FF4077000F009F8701E70
:102AC000C6B2002EF7D115B1284600F001F870BD4E
:102AD0000146114A12884A434FF0E0235A6100220E
:102AE0009A611A46126942F001021A6100BF4FF062
:102AF000E022106900F001021AB100F48032002ACD
:102B0000F5D04FF0E022126922F001024FF0E023ED
:102B10001A6100229A6170470400002082B0CDE95A
:102B2000000121F0004001909DED000B02B051EC3E
:102B3000100B70472DE9F0412DED028B04464FF04C
:102B4000000800279FED2D0AF0EE408A002549E09D
:102B500022462946201D00F0DFF9002841D02E46EC
:102B600008E022463146201D00F0D6F908B108F1F0
:102B70000108761C05F119008642F2DBB8F1050F59
:102B80002FDB012143F68D6001552E460FE0211DFC
:102B900001EB860000F0B4FAF0EE408AF4EEC88A49
:102BA000F1EE10FA02DDB0EE688A3746761C05F1C8
:102BB00032008642EBDB394611A0FDF767FB164871
:102BC000D0F8AC0700EE100AF8EEC00A00EE107A5A
:102BD000B8EEC00A80EE201A04F5705080EDA41AF9
:102BE00006E06D1C43F6886000593238A842AFDC1D
:102BF00000BFBDEC028BBDE8F081000000000000CA
:102C00006D61785F6170706561725F706F696E741D
:102C1000203D2025640A00002070012000BF054AE5
:102C2000128802F04002002AF9D0C2B2014B9A8009
:102C3000704700000010014070B58AB0142105A84B
:102C4000FDF7A0FB19480068049019A3D3E9002000
:102C5000D3E9021301AC0BC40092FEF757FC042326
:102C600064222821062000F0DDF8002412E004ADE3
:102C700005EB84031DF80420114DD5F8B81740F674
:102C8000A77565430F4E06EB85009FED0F0A00F018
:102C9000A5F8641C0A48D0F8A807A042E7DC532135
:102CA0001820FEF797FF0AB070BD0000683F0008CB
:102CB000000102030405060708090A0B0C0D0E0F9C
:102CC000207001202000002000000000F0B5044624
:102CD0000D4616461F4600200F4981F8280081F84E
:102CE00029000846C46280ED0C0AC0ED0D0A80ED93
:102CF0000E1AC5633A46314600F014F83A4631469A
:102D00000548143000F00EF800200449086004491A
:102D1000C1F8A002F0BD0000C47801209C0241422D
:102D20000000414200230360436003618160C26090
:102D30007047000010B5002003490870532140F28D
:102D4000E730FEF7AFFE10BD000000201CB51CA050
:102D5000006801901BA00068009001A800F044F9F1
:102D6000684600F041F90A23C82219469FED161A59
:102D7000DFED160A9FED160A1046FFF7A7FF15486C
:102D80008068154991FBF0F01249C96890FBF1F099
:102D9000401E84B240F247312046FEF797FF0D48AF
:102DA00080680D4991FBF0F00A49C96890FBF1F089
:102DB000401E84B240F247312046FEF7F7FF1CBDAB
:102DC0000207000002080000FDAD003D2FDD984025
:102DD000CDCC4442C4780120A086010030B580EDFE
:102DE000000A43F688642150241D2254DFED0C0AAA
:102DF00000F57054C4EDA10A002543F68D642554F6
:102E0000FFEE000A00F57054C4EDA40ADFED040AD9
:102E1000C4EDA50AD3ED000AC4EDA60A30BD00003A
:102E2000000000002DE9F0412DED0E8B80460C4690
:102E300017461D462E48C0F8A887C0F8AC47C0F812
:102E4000B477C0F8B05707FB04F02949C1F8B807B8
:102E500000212748C0F8BC1780F8C01780F8C117B8
:102E600000263EE0304600F070FD41EC1A0B00EE0B
:102E7000104AB8EEC00A10EE100A00F0F7FF41EC5D
:102E80001C0B00EE105AB8EEC00A10EE100A00F04B
:102E9000EDFF41EC1E0B9FED170B53EC102B00F0D8
:102EA000BBFD41EC1D0B53EC1C2B00F0C7FB41ECB0
:102EB0001B0B53EC1A2B00F0AFFD41EC190BB0EEDD
:102EC000490AF0EE690AFFF747F9B0EE408AF0EEE2
:102ED000608A51EC180B00F0CBFA084941F8260043
:102EE000761C322EBEDBBDEC0E8BBDE8F0810000FF
:102EF0002070012097D17E5AFB211940E4770120F0
:102F00000148007870470000000000200149087067
:102F100070470000000000202DE9F0412DED068BE8
:102F200004460D46164606F5705090EDA60A10EEC2
:102F3000101A084600F09AFF41EC180B04EB8500CC
:102F400000F0DEF810EE107A384600F08FFF41EC0A
:102F50001A0BB0EE4A0AF0EE6A0AFFF7F2F8B0EE8A
:102F6000409AF0EE609A53EC182B51EC190B00F0DC
:102F700051FE04D20120BDEC068BBDE8F08100209B
:102F8000F9E700004FF4A060FEF7ECFBA820FFF784
:102F900065FDFEF787FB4FF4E13000F075F9002086
:102FA0000F490860FFF748FEFFF7D0FEFFF7C2FEAB
:102FB00001200C49C1F8A40210E0FFF7A1FF68B19D
:102FC00000200749086000F01BF900F0B7F8002066
:102FD000FFF79CFF01200349C1F8A402EDE70000C0
:102FE000A4824242008042427CB5064630780728DF
:102FF0002FD2DFE800F0040A10161C222800394DF9
:1030000001210846FEF7BAFB23E0374D01210220DB
:10301000FEF7B4FB1DE0354D01210420FEF7AEFBA9
:1030200017E0334D01210820FEF7A8FB11E0314DD8
:1030300001211020FEF7A2FB0BE02F4D01212020E3
:10304000FEF79CFB05E02D4D01214020FEF796FB8D
:1030500000BF00BF7078102831D2DFE800F0080A06
:103060000C0E10121416181B1E2124272A2D0124C1
:1030700025E0022423E0042421E008241FE010249A
:103080001DE020241BE0402419E0802417E04FF4C9
:10309000807414E04FF4007411E04FF480640EE08B
:1030A0004FF400640BE04FF4805408E04FF40054F8
:1030B00005E04FF4804402E04FF4004400BF00BF3D
:1030C000009401208DF8040000208DF806000220F5
:1030D0008DF8050001208DF8070069462846FEF7A7
:1030E0005AFA7CBD00000240000402400008024081
:1030F000000C024000100240001402400018024080
:103100000146DFED0C0AB0EE600A00200FE001EB93
:10311000800292ED001A084A02EB8002D2ED001AFA
:10312000F0EE400A41EE210AB0EE600A401C32285F
:10313000EDDB704700000000E477012070B5012549
:1031400000BF294890F8C1070028FAD0002418E0F1
:1031500040F6A7716143254A02EB8100FFF7EAFCC4
:1031600065B140F6A7706043204901EB800000F58F
:10317000405090F88D0E08B1012000E00020054677
:10318000641C1948D0F8A807A042E1DC00211648C9
:1031900080F8C11700240BE0002140F6A7706043BF
:1031A000124A02EB800000F5405080F88D1E641C2E
:1031B0000D48D0F8A807A042EEDC40F6B830FFF783
:1031C0006BFC00240CE0214609A0FDF75FF840F6F7
:1031D000A7716143054A02EB810000F0AFF8641C5F
:1031E000062CF0DB284670BD207001202000002056
:1031F000736F756E645F7069636B5F25640A0000AE
:103200000121024880F8C01770470000207001209B
:1032100010B504460FA1204600F024F818B1012093
:103220000D49087010BD0DA1204600F01BF820B11B
:1032300008A0FDF72BF80220F4E709A1204600F0D2
:1032400011F820B106A0FDF721F80320EAE70020DD
:10325000E8E70000770000000000002062000000A6
:1032600074000000024607E010780B78984201D104
:10327000012070470020FCE7107810B10878002882
:10328000F2D10020F5E7000010B588B00446012116
:103290000846FEF773FA01211020FEF78FFA072285
:1032A00009212448FEF7BFF907220A212148FEF729
:1032B000BAF94FF4C060069002208DF81C008DF81A
:1032C0001D0000208DF81E0001208DF81F0006A9AA
:1032D0001848FEF760F902940020ADF80C00ADF834
:1032E0000E00ADF81000ADF814000C20ADF812007F
:1032F00002A91148FEF79CFE01210F48FEF73DFE92
:1033000040210D48FEF730FE012240F225510A48C7
:10331000FEF769FE25208DF8040003208DF80500D6
:103320008DF8060001208DF8070001A8FEF7DEF9F0
:1033300008B010BD00000240001001402DE9F0412E
:103340002DED028B044629A0FCF7A0FF002611E01A
:10335000201D00EB860090ED000A10EE101A0846C2
:1033600000F084FD41EC180B53EC182B22A0FCF765
:103370008DFF761C43F688600059B042E8DC1FA040
:10338000FCF784FF1EA0FCF781FF002511E0211D42
:1033900001EB8500FFF7B4FE10EE107A384600F01E
:1033A00065FD41EC180B53EC182B13A0FCF76EFFD6
:1033B0006D1C43F6886000593238A842E7DC0FA044
:1033C000FCF764FF04F5705090EDA40A10EE101A9B
:1033D000084600F04BFD41EC180B53EC182B0CA0E9
:1033E000FCF754FFBDEC028BBDE8F0810A73616D00
:1033F000706C65203D205B0025662C005D3B0A005B
:10340000636F7272656C6174696F6E203D205B0042
:10341000736F756E645F6170706561725F74696D02
:1034200065203D2025660A0A0000000010B500292D
:103430000AD00878002807D005487844FDF7A0FB9B
:10344000002801D0002010BD0248784410BD0000C3
:103450000A0D0000020D000081F00041704780F06D
:103460000040704721F00041704720F00040704755
:1034700021F00042A2F16052B2F5801F01F000433A
:1034800028BFD2F17F6C0BD95FEA001C43EAC2026D
:1034900042EB507018BF704728BF20F00100704702
:1034A000B2F5801FBCBF184670474FEA410C1CF5AF
:1034B000001F02D2084600F04FBD70B500F056FB69
:1034C00000000089FFF7F6BF4FF00040A0F5800034
:1034D0007047000010B591EA030F48BF83F0004326
:1034E00000F1E283841A71EB030C05D2121943EB4D
:1034F0000C03001B61EB0C01DFF824E14FEA1154CF
:10350000A4EB135C1EEA430F18BF9EEA445F73D01E
:1035100023EA0E03DCF1200E21EA045143F4801368
:1035200032D322FA0CFE10EB0E0023FA0CFE41EB14
:103530000E01CCF1200E03FA0EFE10EB0E0051F13D
:103540000001B1F5801FCCF1200E32D201EB045105
:1035500012FA0EF2BDE8104058BF7047401C38BF49
:103560005FEA420218BF7047002814BF20F0010034
:1035700041F100014FEA410313F5001F38BF7047C6
:10358000A1F1C04100F040BB012A43EB0302ACF1C2
:10359000200CDCF11F0E32BF4FF0000E23FA0CF3AB
:1035A00010EB030041EB0451B4EB115FD0D0A1EB61
:1035B000045101F5801149085FEA300001EB045124
:1035C0000ED350F1000038BF12FA0EFE08D1BDE84C
:1035D0001040C9E7401C38BF5FEA4202CAD1C3E7C6
:1035E000BDE810404FEA410313F5001F38BF704794
:1035F000A1F1C04100F008BB9EEA445F08D011EA87
:103600005E0FBDE8104004BF01F00041002070478C
:10361000BDE8104070B500F0A9FA00BF64FBBE3EE3
:103620000000E0FF491058BFC1F140415B1058BF96
:10363000C3F140438B42EFF3008070472DE9C04156
:1036400030B4DFF8A0C23CEA111418BF3CEA1314EE
:1036500000F0EC8081EA03051CEA111444EAD574F9
:1036600018BF1CEA131500F0C780A4EB05044FF047
:10367000004545EAC12145EAC32341EA505143EAE6
:10368000525304F17F74994204F500344FEAC0208C
:103690004FEAC22208BF904200F09C804FEA1365B7
:1036A0000FF24016765D4FEA134506FB05F7C7F1AA
:1036B000807706FB07F74FEAD737A7FB0368764208
:1036C000C8F58038A7FB06CE38BFA8F1010807FB74
:1036D00008E64FF0000EA6FB028CE6FB03CEDCF101
:1036E000000CCEF1004E38BFAEF1010EA6FB0C5817
:1036F0004FF000074FF00005E6FB0E87A1FB08C660
:10370000A0FB07CE16EB0E0645F10005E1FB0765B1
:1037100015F1E04E7EBFA4F580345FEA46066D41A8
:1037200016F1800745F100054FEA17274FEA0666B4
:1037300047EA0567A6F1DE46B6F1805F4FEA152538
:103740001FD9384624F0010C05EBC471BCF1FE6FA3
:1037500001EB0C1102D8F0BCBDE8008124425CBF33
:1037600001F5801E9EEAC47F02D4F0BCBDE8008152
:10377000244238D4F0BCA1F1C041BDE8004100F0C2
:1037800043BA4FEAD22242EA43524FEAD323A7FB7D
:1037900002864FEAD02040EA415007FB03661EEA4A
:1037A0000E0F4FEAD12105FB026658BFA6EB00566B
:1037B000B6EB00564FEA520E4EEAC37E18EB0E0EE1
:1037C00056EB530EBDD518EB02085E417F1C55F138
:1037D0000005B6E74FF480154FF000074FF00006E4
:1037E0004FF00008ADE7F0BC4FF0000001F1C04120
:1037F00001F00041BDE8008111EA0C1F0CEA13152D
:1038000000D00CE013EA0C1F00F025804FF0000000
:10381000F0BC81EA030101F00041BDE80081F0BC89
:10382000BDE8004181EA030100F0EEB9F0BCBDE85B
:10383000004170B500F09AF9097EFC3E00F007B82F
:1038400081EA03014FF0000001F00041704781EA76
:10385000030100F0D9B9F0BCBDE800414FF0000011
:1038600021497047FFFDFBF9F7F5F4F2F0EEEDEBBF
:10387000E9E8E6E4E3E1E0DEDDDBDAD8D7D5D4D36E
:10388000D1D0CFCDCCCBCAC8C7C6C5C4C2C1C0BFBA
:10389000BEBDBCBBBAB9B8B7B6B5B4B3B2B1B0AFC0
:1038A000AEADACABAAA9A8A8A7A6A5A4A3A3A2A1A4
:1038B000A09F9F9E9D9C9C9B9A999998979796955F
:1038C00095949393929191908F8F8E8E8D8C8C8BFB
:1038D0008B8A898988888787868585848483838283
:1038E000828181800000FF070000F87F4FEA4103DA
:1038F0004FEA5353A3F58063D3F11E03C8BFD3F13E
:10390000210C0CDD4FF0004242EAC12242EA505243
:1039100032FA03FC8CEAE17CACEBE1707047102BCF
:10392000C4BF0020704703F5787CBCF1FF3F04D092
:103930006FF0004282EA2100704770B500F016F97E
:103940004992248000207047F2E710F0004248BFFF
:103950004042B0FA80F310FA03F10AD0C3F11D031C
:1039600003F580634FEA415002EB035202EBD12191
:1039700070474FF000007047B0FA80F310FA03F17F
:103980000AD0C3F11D0303F580634FEA41504FEAAB
:10399000035202EBD12170474FF000007047000046
:1039A00051EA030C17D41CF5801F58BFBCF5801FCB
:1039B00000F10680994218BF704708BF90427047D7
:1039C00007D711F5801F58BF13F5801F19D49942EE
:1039D0007047894270471CF5801F08D5BCF5801FD1
:1039E000F7D58B4218BF704708BF824270474FF42B
:1039F000001C1CEB410F38BF1CEB430F01D28B4264
:103A0000704770B500F0B2F8922449004FF00051B1
:103A10004FF08053FFF706BEDFF848C170B51CEACF
:103A2000111E1EBF1CEA13159EEA0C0F95EA0C0F1F
:103A300000F06F8081EA030423EA4C134EEAD47E3F
:103A400021EA4C1141F4801143F48013AE44A1FBF0
:103A5000024CA0FB0365AEF17F7E361955EB0C05D9
:103A6000A1FB034C4CF10003A0FB021C16EB0C065F
:103A7000654153F10003094218BF46F0010613F4F3
:103A8000007F0BD14FEA03314FEA0530340341EA9E
:103A9000155140EA16506FF003020AE04FEAC321C5
:103AA0004FEAC520F40241EA555140EA56506FF002
:103AB000020202EB2E4201EB025585EACE710AD0DA
:103AC0005FEA440C18BF24F0004450F1000041F1BB
:103AD000000120EAD47040F2FE7C624500D270BD45
:103AE000A84214BF4FF080444FF04044002E08BF5E
:103AF0000024BEF1806FA8BFA1F1C041BDE87040B5
:103B000080F282804FF0000001F1C04101F00041DD
:103B100070479EEA0C0F0CEA131518BF95EA0C0FBC
:103B200006D04FF0000081EA030E0EF0004170BD98
:103B300000F01CF88900013E00F007B800F009B859
:103B40004FEA430C5FEA5C5C08D081EA030100F0B5
:103B50005BB84FEA410C5FEA5C5CF6D14FF00000C5
:103B6000014970470000FF070000F87F0EF1020EC8
:103B70002EF0030E5EF8046B364205D4012A43EBA7
:103B8000030515F5001F12D8012841EB010C1CF5A7
:103B9000001F0CD80ED14FEAD17C15F5001F0CEB9D
:103BA0004C0C0CF1020C08BF4CEBD37C04E04FF042
:103BB000080C01E04FEAD37C0CEB4C0526FA05F625
:103BC00006F00706B6F1040C06D20EEB860CBDE833
:103BD00070404CF0010C6047DFE80CF0090B02026A
:103BE0004FF000414FF00000A1F5002170BD1946D3
:103BF0001046012851EB010418BFD4F5001484BF0E
:103C0000002001F0004170BD0808A0F500114FEA46
:103C10003101704753EA010C17D41CF5801F58BFBF
:103C2000BCF5801F00F106808B4218BF704708BFAB
:103C30008242704707D713F5801F58BF11F5801FC8
:103C400019D48B4270479B4270471CF5801F08D5E2
:103C5000BCF5801FF7D5994218BF704708BF904246
:103C600070474FF4001C1CEB430F38BF1CEB410F97
:103C700001D2994270470FB40CBC03BCFFF7C1BE20
:103C800091EA030F10B581F000413FF52BAC83F0B2
:103C9000004300F009B8000010B591EA030F48BFD7
:103CA00083F000433FF51EAC841A71EB030C07D27E
:103CB00012198CF0004C43EB0C03001B61EB0C0160
:103CC000DFF8A4E14FEA1154A4EB135C1EEA430FA2
:103CD00018BF9EEA445F00F0B08023EA6E035242B0
:103CE00021EA0451C3EB6E0338BF5B1EDCF1200EEA
:103CF00025D322FA0CFE10EB0E0043FA0CFE41EB2A
:103D00000E01CCF1200E03FA0EFE10EB0E0051F165
:103D10000001CCF1200E29D412FA0EF201EB04516D
:103D2000BDE8104058BF7047401C1CBFB2F1004FA7
:103D3000704700280CBF491C20F00100704712EBAF
:103D4000020E43EB030218BF4FF0010E4EEA42028F
:103D5000ACF1200CDCF11E0E54D943FA0CFE10EB32
:103D60000E0051F1FF31CCF11E0ED5D50EF1010E32
:103D700012FA0EFE404141EB010101EB445C5FEAA7
:103D80005C5C10D910EBDE7001EB045138BFBEF162
:103D9000004FBDE8104018BF704700280CBF491CF9
:103DA00020F00100704730D24FEAD42C11F50011F9
:103DB00024F400641BD0B1FA81F20B3AA41AA41EB9
:103DC000D2F12003914030FA03F31943904001EB04
:103DD000CC71002C01EB0451BDE81040A8BF704726
:103DE00001F1C0414FF0000001F000417047B0FA0E
:103DF00080F310FA03F100D110BDE41A173C480516
:103E0000C90AE4E701EB045110BD491001EB04516C
:103E1000BDE810404FEA300002E04FF0000170476B
:103E20004A0008BF0042F8D0B2F5001F28BF704713
:103E300001F000414FF0000070479EEA445F07D058
:103E400011EA5E0FBDE8104004BF0021002070475A
:103E5000BDE8104070B5FFF789FE00BF40DFF63EB9
:103E600083F00041104670470000E0FF43004FEA36
:103E7000D30C4FEA3C0C43401FBF40070CF160518C
:103E800013F0FE4F70471CF0006F03D100200CF0C0
:103E9000004170470CF0004343EA507010B540EA0F
:103EA000CC0000F00EF800BF000000924FEA0001C5
:103EB000FFF7AABE4FF000414FF00000A1F500212E
:103EC00070470EF1020E2EF0030E5EF8044B2442F2
:103ED00004D44FEA4102B2F17F4F11D84FEA4003B8
:103EE000B3F17F4F0CD80ED14FEAD07CB2F17F4FA7
:103EF0000CEB4C0C0CF1020C08BF4CEBD17C04E039
:103F00004FF0080C01E04FEAD17C0CEB4C0324FA93
:103F100003F404F00704B4F1040C06D20EEB840C95
:103F2000BDE810404CF0010C6047DFE80CF00708DA
:103F300002024FF00040A0F5800010BD084642008C
:103F400018BFD2F1807288BF00F0004010BD4FF062
:103F50004070E1EE100A7047FF2141EAD050C005E1
:103F60007047FCF777BB00000000404000000000F5
:103F70004C5555555555A53F7751C1166CC156BF87
:103F80009015CB19A001FA3EAD529C804F7E92BE97
:103F9000C4B1B4BD9EEE213ED43888BEE9FAA8BDB6
:103FA00000004054FB21F93F3163621A61B4D03DF7
:103FB0000000601A61B4D03D7370032E8A19A33BD0
:103FC0000000002E8A19A33BC14920259A837B3922
:103FD00000000000000000006E83F9A22915444E85
:103FE000D15727FCC0DD34F5999562DB4190433C05
:103FF000AB6351FE61C5BBDE3A6E24B7E0D24D42E1
:10400000EA2E49061C92D1091CEB1DFE3EA729B1E0
:10401000F53582E88444BB2E26709CE9417E5FB46E
:1040200039D69139F43953838B5F849C3B28F9BD91
:10403000FF97F81F0F9805DE8B112FEF1F6D0A5A9F
:10404000CF7E366DB709CB27663F464F2DEA5F9E80
:10405000C7BA27757BF1E5EBF739073DEA92528A3B
:10406000B15FFB6B085D8D1FA6F810111111813F28
:10407000D561C119A0012ABF7DFEB157E31DC73E1E
:10408000EB9C2B8AE6E55ABE7CD5CF5A3AD9E53D62
:1040900002400000000000A00000000005400000F9
:1040A000000000C8000000000C4000000000409C20
:1040B00000000000194000000020BCBE000000000D
:1040C00034400000BFC91B8E00000004B540000052
:1040D000504BCFD06607E2CF010000006C410000DA
:1040E0003E8251AADFEEA73401000000D942000051
:1040F000DCB5A0E23A301F97FFFFFFFFB445000098
:10410000FD25A0C8E9A3C14FFFFFFFFFFF3F00004F
:104110000000008000000000FF3F00000000008061
:1041200000000000604100080000002020000000A6
:10413000C40100088041000820000020108E01000A
:10414000E00100081C00000043000000F8FFFFFF32
:104150000C0000000E0000000F0000002E00000008
:10416000000000000000000000000000000000004F
:10417000000001020304010203040607080900000D
:040000050800018965
:00000001FF
